:020000040000fa
:080000000001040000000000f3
:020000040000fa
:100200008f98210000bf210000018800000000003d
:100210000c000700401f2e00010020001100070005
:10022000000020000000e000020032000000020098
:100230000000000074ba0200000000000040da0074
:100240000000fe004440a900606920000000e000ba
:100250000300320000002000a00188004440a800f4
:100260000000060091018800800078000000eb008b
:1002700015003700e280400032a0b4009101ba00be
:10028000e280400032a0b4009102ba00e280400057
:1002900032a0b4000002eb00472bde00f507b200ed
:1002a000602ce10004003a000059eb008301e900f2
:1002b000fdff3e00040037006128e100010032002c
:1002c0000082eb00040007001101ba000200e00008
:1002d000e8ff3a00000006003159ba008301e90046
:1002e0000c0032002159ba008301e90008003200f5
:1002f0000400e00003003a00e280400032a0b400b5
:10030000f5ff370011d9ba008301e900faff3a007e
:100310008100e800e180400032a0b4000000060047
:10032000c000040001000000f6f10400000000001d
:10033000daf2040000000000bed704000000000054
:1003400096fe040000000000ea0204000000000025
:100350002603040000000000889fbe00e304400064
:100360000900a100808f54004a003600e38f54003a
:1003700001003e004900200032c580000200e0007c
:1003800002003200820078000c003700818a2100d0
:1003900003003700908f5400230036008080e8006f
:1003a000110078000000e000faff3a000f0037006b
:1003b000908f54001c0036008080e8001100780007
:1003c0000000e000faff3a0012017800818a210063
:1003d00003003700908f5400130036008080e8003f
:1003e00011007800820f5000faff3a0028c5800003
:1003f000890f5400010031000904780008007800da
:10040000a70007000000e00004003a00890f540034
:10041000200032000804d100f5ff370008187800ea
:1004200031000700d4ff37001101780092017800f5
:1004300064805100890f50000300310012009000c9
:100440008008780007003700090041008008780024
:100450009201900013009800110078001288140097
:1004600009097800910078000100e00005003200e1
:10047000110090000000e000020032000180e8005e
:10048000010037000000eb0030c588000280e80062
:10049000010037000000eb004f04be000000060022
:1004a00000047800060037008200410060c580002b
:1004b000e10078000200e80050c58800010001005a
:1004c00052c5800070c58000800f5100f6ff3900d2
:1004d000607a210060c588002002200070c5880075
:1004e00008007800d30907000000e0003100320066
:1004f0008080e90091027800e38f52002d003600e1
:100500000508a3002b003a0042c580000200e0006d
:1005100002003200828f500004003100020878008f
:1005200041c5880016003700030178009201900051
:100530000300e00002003200818f5100faff390011
:100540001202780004004100808f50001900390029
:10055000810f500003003a00050942008200780034
:10056000070037000300e000030032000580400070
:10057000808f51000f0039009300980011019800fe
:10058000110190000200e0000a00320011804000da
:10059000820f500007003a00608a21000008eb003b
:1005a00011009000110178009008410010009000a7
:1005b0009000980000000600800078001106b1004d
:1005c000030035009101b10001003c000050a10082
:1005d00000000600881f780002047800370007003a
:1005e000080040004f047800000006000000fa00f8
:1005f000881f7800000478003fb99700ea8157000f
:1006000080007800a02e20003300070080007800d2
:100610000000e000020035000040eb0000f478002c
:10062000010078004f0478000080fa000000060006
:1006300080007800010037000000e8001004e000ae
:10064000fdff3a0001005000000006009001780014
:100650000200e00002003a000308e900050037004c
:100660008080eb001304e000020032000308e80081
:100670009300fb0001007800000006000200fa0071
:10068000f0bf9f003fb99700ea8157008f80e900d3
:1006900060322000c90007000080fa000000060058
:1006a0000000e000030034006a090700e10f400089
:1006b00001003a000000eb00000006008001eb00a2
:1006c0000200370061f079008301e800828f510059
:1006d000fcff3a00000006006200fa00889fbe009e
:1006e0008a9fbe000004be000205780083007800e7
:1006f00060f92f000f0040007801070088979f00e5
:1007000099979f000000eb00a09f9f009a457800fa
:100710000b80fb000000ea00cf04de0050c2b300f3
:1007200080cf550002003200090478000100370034
:100730000904e9000800e0000b0034001f90970056
:10074000080178008a0078008f919700030001006b
:1007500090979f000000e000930032002f989700d0
:1007600000004400a09f9f000905450050c2b3004f
:1007700080cf5500040032000b04e000e3ff3a0094
:100780002f989700890037000000eb00809f9f00a2
:10079000f0979f00e0979f00d0979f00c0979f0021
:1007a000b0979f00c09f9f0009003700608521001f
:1007b0000080500000004000a1842100e10078008a
:1007c0004f98970001007000c09f9f000a05e80045
:1007d0001a4478008800fb0060852100440107006e
:1007e000800078000000e000f0ff3a00a0c2b300f3
:1007f000804f54000e003a00bf8897000180e90046
:10080000b08f9f0010007800b09f9f000000e000b4
:1008100005003d000000ea00b09f9f004f98970040
:100820000020a000c09f9f000a05e80010003700cc
:10083000b19f9f0003fd2f00f4ff27000800370041
:100840003f989700840f5000040032006a00b900fe
:100850000000410003004000b09f9f000a05e8002f
:100860001a01fb0003004100e90f5000f4ff3600bd
:10087000e0c2b3009a4f1000040032000080eb0089
:10088000909f9f008a0478001c0037008a04e800cb
:10089000a0c2b300994f100007003a00bf8897002c
:1008a0000180e900b08f9f0010007800909f9f00aa
:1008b0008a84e800110037000000eb00909f9f0041
:1008c00003fd2f00f4ff2700080037001f98970052
:1008d000840f5000040032006a00b900000041009b
:1008e00003004000909f9f008904e8001901fb006d
:1008f00003004100e90f5000f4ff3600194478006e
:100900008800fb0000892100f90007000000e000da
:1009100002003a0000447800010037008904e80032
:10092000a87f9f0080c6b300804f540004003a00a7
:10093000994f14000a003a00664050000600370044
:10094000c0c6b300804f540005003a00994f140010
:1009500003003a0065404000a07f9f008904e80042
:100960000905e800cbfb2f008f8545001901fb002e
:1009700060f92f000f0040000084e8008b01780030
:100980008000780008007800e20007000000e00026
:1009900005003a008b00780008007800200207006c
:1009a0000000e00059ff3d000080eb004f05be0055
:1009b0004f04be000080fa00000006001200fa009a
:1009c000889fbe008a9fbe008c1f780002047800ba
:1009d000a0b79f00b1b79f008300780078805700d0
:1009e000be0007000000eb00e0b79f00d8b79f00f3
:1009f00000067800dfb49700194578000a80fb00f4
:100a00000000ea00cf05de000a00fb00ce0207006e
:100a10000000e0001a0032006fb097000000e8000c
:100a2000e0b79f003fb09700120020008000eb006d
:100a3000afb197000300010000047800c202070074
:100a4000000178000000e000f3ff3a006fb097006b
:100a5000e10f4400070032000000e900e0b79f000a
:100a60003fb0970088007800afb197000300010005
:100a7000230037000000e900e0b79f0020003700a6
:100a800050c2b300804f5500020032000b047800c2
:100a9000190037000b04e900170037006fb097000a
:100aa0000000e800e0b79f003fb097001200200070
:100ab0008000eb00afb197000300010080007800d8
:100ac0001900fb00808f50000a003200e18f4000c7
:100ad0007c0032006fb097000000e900e0b79f0093
:100ae0003fb097000001eb00afb197000300010099
:100af000740037008904e8000804e900e7ff3b00c0
:100b00005fb0970080804500d1b79f0050c2b3000e
:100b1000804f5500030032000a04e000b5ff3a00a0
:100b200068003700a2c2b3000040eb00914f1100f3
:100b300003003a000100e800d0b79f0002407800af
:100b4000a0f79f000000eb0080bf9f0003fd2f0077
:100b5000f4ff27000a0037000fb89700840f5000f9
:100b6000040032006a00b9000000410003004000a8
:100b700080bf9f005fb097000000e800d0b79f00e3
:100b8000dfb49700194478000801fb00030041001e
:100b9000e90f5000f0ff360082007800c087210086
:100ba000530007000000e00002003a000044780013
:100bb000020037000900e800d0b79f00b8f79f0097
:100bc00080c6b300804f540005003a00dfb09700a4
:100bd000914f14000c003a006640500007003700a7
:100be000c0c6b300804f540007003a00dfb0970042
:100bf000914f140004003a0065404000b0f79f0098
:100c00000100e800d0b79f005fb097009000fb00a4
:100c100030882100360007000000e00019003a008b
:100c20006fb097000000e800e0b79f003fb097006a
:100c3000120020008000eb00afb19700030001001c
:100c40000004780040020700000178000000e00086
:100c5000f3ff3a006fb09700e10f44000700320045
:100c60000000e900e0b79f003fb0970088007800df
:100c7000afb1970003000100020037000000e90057
:100c8000e0b79f007c805700370207000000e000bb
:100c900003003c000c00e0000900320009003700ae
:100ca0004ff097000004e000010032000c06e8005d
:100cb0005fb097000000e800d0b79f004dff3700fd
:100cc000000678000c0078004f0678004f05be0043
:100cd0004f04be000080fa00000006000200fa0087
:100ce000f1bf9f00010878000080fa0000000600b4
:100cf000040037000204e00001003a000000050093
:100d00000000e80010417800814f5100f9ff3a00df
:100d100000000600889fbe008a1f7800000478004b
:100d2000010278008244780003057800e0c6b30031
:100d3000804f5100d200320015003c006b40500043
:100d4000804f5100240032000a003c0070405000e7
:100d5000804f51000f01320065404000804f51002c
:100d60007400320050c2b300804f510020013a009d
:100d70001c01370040c6b300804f51001b003200f9
:100d800065404000804f510019013a0017003700bc
:100d900030c7b300804f5100fe00320007003c0016
:100da00064405000804f5100620032000040e80073
:100db000804f51000e013a00e700370050c7b300e2
:100dc000804f51005b00320063404000804f510073
:100dd00007013a00570037009180e900010a7800c6
:100de000780090009171780007013700a8609000aa
:100df000c0c6b30080cf50000a003a0094007800cb
:100e000064805000000a78001000be004f89de00a8
:100e1000cf91de000002be0002037800820378005a
:100e20001300370010c7b30080cf5000030032001a
:100e3000a0c6b30080cf500006003a0094007800ae
:100e400068805000000a78003002be002003be0017
:100e5000070037001480e900000a780010007800cd
:100e600000027800cfa2de00050378008603780038
:100e7000049cbe000694be00a860900080c6b3002b
:100e800080cf50000e00320020c6b30080cf50004b
:100e900005003a000400fb00cf80de00010178006d
:100ea000820178000a00370040c7b30080cf5000ad
:100eb000030032006640400080cf500006003a0038
:100ec00004007800cf80de00010178008201780004
:100ed000009cbe000294be003800be002801be0087
:100ee000e00f5000e08f5800e00f5900e08f5900ec
:100ef00003003d0078009000d1c2b3000a00370023
:100f0000081090000018a300030032007800900041
:100f1000b1c2b300040037000008a3005300320040
:100f20007800900001c2b300017578000000e8006d
:100f30004d003700a8609000c0c6b30080cf5000bd
:100f400006003a009400780064805000000a78009f
:100f50001002be006033b8001300370010c7b300a2
:100f600080cf500003003200a0c6b30080cf5000f5
:100f700006003a009400780068805000000a78006b
:100f80003002be002003be00070037001480e900d5
:100f9000000a7800100078000002780005002000a8
:100fa0000600200007002000049cbe000694be003e
:100fb000a860900080c6b30080cf50000e003200c1
:100fc00020c6b30080cf500005003a000480fb002b
:100fd0000100200002002000030020000a0037006a
:100fe00040c7b30080cf500003003200664040008d
:100ff00080cf500006003a00040078000100200075
:101000000200200003002000009cbe000294be00ed
:10101000081090000038a300140032003800be0011
:101020002801be00e00f5000e08f5800e00f59008b
:10103000e08f59000d00320080c7b30080cf54000c
:101040000300320080c5b30080cf540007003a008f
:101050007800900001c3b300017578008000e800bb
:1010600009f578000080e80070049800780090008e
:101070000000450060049800894078004200370075
:10108000a8609000c0c6b30080cf50002500320099
:101090000a003c006440500080cf5000280032001d
:1010a00000c0e80080cf50001400320068405000bb
:1010b00080cf500022003a000a00370040c7b3003a
:1010c00080cf50001e0032006640400080cf5000ac
:1010d0001b0032006940500080cf500018003a00d9
:1010e000060037001480e900000a7800100078003c
:1010f000485c900008487800450037001480e900fb
:10110000000a78001002780068089000cf80de00a6
:101110000101780082017800009abe000292be00b0
:101120003b0037001480e900000a780010017800c5
:1011300068089000cf80de000089be0034003700d0
:101140001480e900000a780010007800680c900014
:10115000080878002e0037001180e9008008780028
:1011600010007800cf80de00010178008201780055
:10117000009cbe000294be00780090000000450074
:101180006004980081c7b300080078008d01070053
:101190001f0037001480e900000a78001000780072
:1011a00060049800580990000200e00002003d0031
:1011b0001ffd0700090037008000eb000a0307004d
:1011c000800078000000e00003003200680090001a
:1011d000008050000100370058089000100c980063
:1011e0000b00370078009000027578000600370089
:1011f00078009000800045000904e00001003a00fa
:1012000059c2b300894878000000e80070049800d3
:101210000000eb004f0578004f04be000000060000
:101220000400fa00889fbe008a9fbe008c1f7800d1
:10123000000478000106780070089000f800900023
:1012400001005000880890000100500098089000ac
:1012500001005000a808900001005000b80890005c
:1012600001005000c80890008105500000022200d3
:1012700090bf9f0000032300a0bf9f0008109000b4
:101280000028a30018003a000b00e000160034000c
:101290008b04780009057800e28f540002003600c4
:1012a0002a002000020037000900e0000b00340093
:1012b00058009000c80190000a017800ee805700a5
:1012c00003000100500498000000e0009600320086
:1012d0006808900000004500600c98008a84540063
:1012e0004240a900ebff3c00780190000200e000c2
:1012f0000b00340058009000c80190008c0078006a
:1013000003000100500498000000e0008600320055
:1013100068089000f800900001004000600c980000
:10132000880c90000900e0001500340009057800e1
:10133000e28f5400020036002a002000020037002d
:101340000900e0000b00340058009000c801900034
:101350000a017800ec805700030001005004980057
:101360000000e000700032006808900000004500b6
:10137000600c98008a8454004240a900ebff3c00b6
:10138000180990000200e0000b003400e800900013
:1013900058009000c801900003000100500498001c
:1013a0000000e0006000320068089000980890009b
:1013b00001004000600c9800a80c90000900e000bb
:1013c0001500340009057800e28f54000200360051
:1013d0002a002000020037000900e0000b00340062
:1013e00058009000c80190000a017800ec80570076
:1013f00003000100500498000000e0004a003200a1
:101400006808900000004500600c98008a84540031
:101410004240a900ebff3c00380990000200e000c8
:101420000d003400e8009000180890008080400013
:1014300058009000c801900003000100500498007b
:101440000000e0003800320068089000b808900002
:1014500001004000600c9800c80c90000900e000fa
:101460001500340009057800e28f540002003600b0
:101470002a002000020037000900e0000b003400c1
:1014800058009000c80190000a017800ec805700d5
:1014900003000100500498000000e0002200320028
:1014a0006808900000004500600c98008a84540091
:1014b0004240a900ebff3c00081090000028a30068
:1014c0001b0032000b00e000190034008b04780090
:1014d00009057800e28f5400020036002a0020003f
:1014e000020037000900e0000b00340058009000b3
:1014f000c80190000a017800ee8057000300010047
:10150000500498000000e0000700320068089000d6
:1015100000004500600c98008a8454004240a900f5
:1015200003003400eaff37000080eb0001003700c1
:101530000000eb004f0678004f05be004f04be00d0
:101540000080fa00000006006900e1000400350098
:101550006d00e100030034000002b1000100320020
:101560000000050010000500881f780000047800c6
:101570000040eb0000549800380090009040780044
:1015800090c6b30080cf50002a00320013003c0008
:101590007140500080cf50002600320005003c0012
:1015a00050c2b30080cf50006400320030c5b30099
:1015b0001b00370030c6b30080cf50001b00320044
:1015c0000040e80080cf50001a003200694050000f
:1015d00080cf50006e003a007300370000c7b300a0
:1015e00080cf500007003c000040e90080cf500051
:1015f00010003d000040e90080cf500064003a0038
:101600000f00370050c7b30080cf500009003200f0
:101610006340400080cf500006003200654050001b
:1016200080cf500043003200590037008000eb00ab
:101630005e00370008007800f50107005f00370002
:10164000684890000004e0005b003a00f848900011
:10165000c0c6b30080cf5000270032000a003c0013
:101660006440500080cf50002b00320000c0e800e2
:1016700080cf5000150032006840500080cf5000ed
:1016800025003a000a00370040c7b30080cf500061
:10169000210032006640400080cf50001e00320022
:1016a0006940500080cf50001b003a00070037000f
:1016b000280090000080e9002004980010007800c5
:1016c000084c9000084878003b0037002800900044
:1016d0000080e90020049800100278004800900083
:1016e000cf80de000101780082017800009abe0000
:1016f0000292be0030003700280090000080e90010
:10170000200498001001780048009000cf80de008f
:101710000089be0028003700280090000080e90002
:101720002004980010007800480490000808780011
:1017300021003700110020001c00370048009000f5
:101740000000e8004004980018009000980178001c
:10175000120020008000eb000300010080007800f0
:1017600050022000808f500013003200480090008b
:10177000e18f4000080032000000e90040049800ba
:1017800018009000980178000001eb0003000100b0
:101790000000eb00090037000000e9004004980059
:1017a00001007800050037008080eb000800780019
:1017b000f002070001003700100020004f047800fd
:1017c000000006002f03b000889fbe008a9fbe0065
:1017d0008c9fbe008e1f78000007780010822100c9
:1017e000c0b79f0080c5b30080cf50000800320012
:1017f00002812100c2b79f007740400080cf500097
:1018000003003a0083002000b3b79f000a003700ae
:1018100080c7b30080cf500005003200a400200034
:10182000b4b79f0080c5b30080cf500002003a00db
:1018300005012000b5b79f003e04be002e05be0086
:1018400040c6b30080cf5000030032006540400026
:1018500080cf50000b003a00e00f5400e08f5c0096
:10186000e00f5d00e08f5d0006003d006000b80005
:101870006011b80008045000898458000a05590016
:101880008b855900bfb39700e88f530003003200e7
:10189000f08f530045003a00020037003600200068
:1018a0000100370046002000e00f5400e08f5c008c
:1018b000e00f5d00e08f5d0005003a005e089000db
:1018c00081012000a1b79f000000e0000800320065
:1018d0003fb197000200e90008006000cfb1970017
:1018e0006340780090df9f0074012000a4b79f0040
:1018f000860278008502e900050033008b05d100df
:101900000a85d3008984d3000884d300f9ff370007
:10191000089fbe000a97be00afb397000700e9001a
:1019200021fc2f008f804000008240003fb19700d3
:101930008202e90012003700afb397008703e90085
:10194000a7b79f0000806200cfb097006152780077
:101950003e00be002e01be00860378008703e9002a
:10196000050033008381d1000281d3008180d30040
:101970000080d300f9ff3700009fbe000297be0031
:101980003e00be002e01be00e00f5000e08f580068
:10199000e00f5900e08f5900d6003400afb3970034
:1019a0000700e000e4ff3c00d2003700ae6090008a
:1019b00080c6b30080cf50000b00320006003c0010
:1019c0000104e000080032006640500080cf500063
:1019d00073003a0004003700c0c6b30080cf500047
:1019e0006f003a0031003700080178000800e0007d
:1019f00005003a005e08900081012000a1b79f0019
:101a00000000e00009003200bfb19700110009009a
:101a10000381d8008000fd004fb297006440780039
:101a200090df9f0075012000a5b79f00bfb397000e
:101a3000110009000781d80080017800afb097003d
:101a40000100e90022fc2f000f01410000024100cb
:101a50000c003700bfb29700110009008501d800c3
:101a600000017800afb397008703e900a7b79f0094
:101a70000590b90000805100cfb097006152780006
:101a8000820178000300e000030034002fb19700ca
:101a90000200e000efff3c0003007800cf80de0092
:101aa00001017800820178003a0037000806be0084
:101ab000e00f5400e08f5c0005003a005e089000e3
:101ac00083012000a3b79f000000e000090032005e
:101ad0003fb297006121b9000c00be00f20607007a
:101ae000cfb297006540780090df9f00770120001b
:101af000a7b79f003fb297006121b9000c00be005c
:101b0000590607000006be00afb297000500e900c5
:101b100027fc2f008f8343008083430097b79f00eb
:101b2000110037003fb197006114b9000801be00f1
:101b30000c00be00000507000005be00afb1970015
:101b40008301e900a3b79f000801be0066040700f7
:101b5000000056001fb29700cfb297006552780080
:101b600094b79f000a06be00e00f5600e08f5e00ab
:101b700003003400afb397000700e000e9ff3c002a
:101b80004feade00cfa2de000c00be0004017800a8
:101b900084017800009fbe000297be005500370008
:101ba000e00f5400e08f5c00e00f5d00e08f5d000f
:101bb00005003a005e08900081012000a1b79f0057
:101bc0000000e0000d0032003fb1970002027800f3
:101bd000cfa2de0005037800860378000800be006f
:101be0000a01be00340707004fb297006440780036
:101bf00090df9f0075012000a5b79f003fb19700bf
:101c000002027800cfa2de00050378008603780088
:101c10000800be000a01be0020070700009fbe00aa
:101c20000297be00afb197000300e90024fc2f002b
:101c30000f0242000006420020003700bfb29700aa
:101c400005047800cfc4de00090578008a05780015
:101c50000802be000a03be005fa89700efa8970025
:101c60007fa997008fb1970017070700d0b79f0093
:101c7000e1b79f00f2b79f0083bf9f00afb397000b
:101c80008703e900a7b79f000802be000a03be0051
:101c9000930707005faa970000005200cfb2970099
:101ca000655678005fb09700efb097007fb197005e
:101cb0008fb99700009fbe000297be003e00be0095
:101cc0002e01be00d0af9f00e1af9f00f2af9f009a
:101cd00083b79f00e00f5000e08f5800e00f5900dd
:101ce000e08f590003003400afb097000100e0001e
:101cf000d2ff3c003fb19700e80f510013003a00bb
:101d00000e1090000038a30010003200afb1970011
:101d1000f78f510006003e0024fc2f000f02420006
:101d20008300420000c3b300914f1000070032004f
:101d3000afb297008502e900a5b79f0000c3b300ca
:101d400027fc2f008f83430080f37a00afb1970008
:101d500078811100120f98006e00900024fc2f0073
:101d60000f0242008300420054fa07001e0990004f
:101d70005e089000800f510006003d0002005000f8
:101d8000000f98000e1090000040a100001798006e
:101d90000f0037000000e0000d003d000e10900025
:101da00074006000f00f500009003a007e089000b7
:101db000fe009000010050008e08900001005000cd
:101dc000020050004240a90001003400000f9800ba
:101dd0004f0778004f06be004f05be004f04be00ff
:101de0002f03b100000006008001eb000400370063
:101df0008301e80090cf1000040032000000e800ea
:101e0000828f5100faff3a000000eb00000006004c
:101e10002f02b000889fbe008a9fbe008c9fbe002c
:101e20008e1f780080047800600090000000e000c1
:101e300001003c00f0ff27000000e900d0049800fa
:101e4000c90090000c0033000100e800c0049800b5
:101e50001900900099017800120020008000eb002a
:101e60000300010000057800b0022000800f55003b
:101e700006003a000b0037000100e800c00498009b
:101e80002cfd2f000f0646001b003700d00220005b
:101e9000800f5500030032002cfd2f000f06460076
:101ea0001600370030fd2f000f044000aad79f0016
:101eb000590090000000e900d0049800c90090008b
:101ec0000a0033000100e800c004980019009000e7
:101ed00099017800120020008000eb00030001004f
:101ee0000005780008067800040037000100e800cb
:101ef000c0049800080678000085eb00187f2100d8
:101f0000390090009000fb000800780078fb070083
:101f100008005000a17e2100614478008805fb0084
:101f200000032000800f550033003a005900900054
:101f30000000e900d0049800c90090000c003300b4
:101f40000100e800c0049800190090009901780091
:101f5000120020008000eb00030001000005780063
:101f600080072000800f550005003a000700370069
:101f70000100e800c00498000085eb001b0037005a
:101f800080052000800f550018003a000804e0008a
:101f900002003200f04f54001d003a00590090003a
:101fa0000000e900d0049800c90090000900330047
:101fb0000100e800c0049800190090009901780021
:101fc000120020008000eb000300010000057800f3
:101fd000030037000100e800c00498000085eb0012
:101fe0000047eb000b012000110037000804e0005f
:101ff000b8003200060037000047eb000804e0009c
:1020000004003a00ad002000084778001c003700ab
:102010001ec0b300ad002000ea4f5400180032008b
:10202000e88f550002003a008b0678001400370054
:102030006d01200012003700590090000000e900f7
:10204000d0049800c9009000090033000100e800a6
:10205000c004980019009000990178001200200037
:102060008000eb000300010000057800030037004a
:102070000100e800c00498000085eb001ec0b3001a
:1020800000032000800f5500ebff32000e04e0003b
:1020900018003200005e7800160037006f8057008d
:1020a000800f5600010031000a5e78005900900050
:1020b0000000e900d0049800c90090000900330036
:1020c0000100e800c0049800190090009901780010
:1020d000120020008000eb000300010000057800e2
:1020e000030037000100e800c00498000085eb0001
:1020f0001ec0b300e10f4500070032000d0178005b
:102100008a007800907f210037ff07000000e00080
:10211000e2ff3a0066003700490090000000e90045
:10212000c00498000e04e00008003a0020fd2f00d3
:102130000f004000800f56005b003a00e10f4500a1
:1021400059003a008a00780065003700004eeb0025
:1021500069489000110020000004e00060003a008f
:10216000390090009040780040c6b30080cf500006
:10217000030032006540400080cf50000a003a0062
:102180000b0178008000eb0020fd2f000f004000c5
:10219000650107000203be000002be0010c0b300cc
:1021a000805498000d0037000b0178008000eb0090
:1021b00020fd2f000f004000b50107000203be0004
:1021c0000002be0010c0b30080549800b900900017
:1021d00000c7b300914f10002c003200f948900066
:1021e000c0c6b30080cf5000220032000a003c007d
:1021f0006440500080cf50002400320000c0e8004e
:1022000080cf5000140032006840500080cf500052
:102210001e003a000a00370040c7b30080cf5000cc
:102220001a0032006640400080cf50001700320094
:102230006940500080cf500014003a00060037007b
:10224000290090000080e900a004980010007800a8
:102250000448780012003700290090000080e9004f
:10226000a0049800100078000498be000690be00fc
:102270000b003700290090000080e900a0049800be
:10228000100078000488be00050037002900900087
:102290000080e900a004980010007800040878008d
:1022a000110020000e0037008000eb000c0037000a
:1022b000490090000000e900c00498001900900057
:1022c000990178000001eb008a007800030001000a
:1022d00094ff37001ec0b3008b00200052ff370070
:1022e000010078004f0778004f06be004f05be0082
:1022f0004f04be002f02b1000000060080017800ec
:10230000d4c2b3000f0037000300e800904f120062
:1023100008003a0093cf100003003e0023409000d5
:1023200080cf500012003600e3814100630151006c
:102330000400370093cf10000d0032000201e900c5
:1023400080017800e20f5100efff3e000002eb0039
:102350000400370064c079000402e800814f500097
:1023600003003200820f5200faff3a00000005001d
:1023700010000500f0874700889fbe008a9fbe00be
:102380008c9fbe008e1f78000004780081067800c4
:102390000000eb00c0b79f00f8489000c0c6b30033
:1023a00080cf500002003a0011002000c1b79f000a
:1023b0000d00e00023003d00b80090000100e8009f
:1023c00030049800e2c5b3008041eb0083f79f0022
:1023d000904f110003003a000180e800300498009b
:1023e00082f79f00b8049000d0c5b300994f100049
:1023f0000200320009007800010037000900e800ff
:10240000d10520003afa0700d0b79f008000eb000a
:102410000000e000bd00320009065000e20f560047
:10242000080034000c81e9000900e800d102200016
:102430006dfe070011c0b300c1ef9f000000e00077
:1024400002003a008041eb00c3ef9f00680090005b
:102450000000e00004003c00f0ff27000d00e00059
:1024600001003a00100020005004980068489000d5
:102470000004e0000d003a0028009000cfb0970063
:102480000100e000050032000080e900200498000f
:1024900010007800b0b79f00040037000080e9000a
:1024a0002004980010007800f0b79f000045eb0072
:1024b0005e0037000d00e0000300340009007800e2
:1024c00021fc07001e0037000d00e0001e00320056
:1024d000cfe997000304e0000c003a0038009000b8
:1024e0008ff097000104e00004003a000c0178002e
:1024f000890078003cfe07000b0037000c017800d3
:102500008900780038fe07000d0037003800900081
:102510008ff197000304e00006003a000c017800f8
:102520008900780075ff07000000e00006003a000f
:102530006d0037000c017800890078006fff0700fc
:102540000000e00068003a004fb097000000e00093
:1025500009003a00684890000004e00032003a00a8
:10256000ffb0970089587800f1b79f0010c0b30002
:10257000005498002c003700c9e79f008905fb0034
:102580000b007800010032001000200000057800e8
:102590001e0020000000e00016003a000904e000e0
:1025a00004003a007c80570021f807000005e8008d
:1025b000100037000e07e900fc81570063407f00e0
:1025c0008000fb0048019000e14f4000070032000e
:1025d0000200e9004004980018009000980178007b
:1025e0000001eb0003000100020037000200e900d7
:1025f000400498008e0f5500eeff350068489000ab
:102600000004e00005003a003fb097000b18780086
:10261000b0b79f0010c0b30000549800680090004d
:102620000000e900600498002ac0b3005800900040
:102630000000e90050049800480190000b003300ae
:102640000200e8004004980018009000980178000b
:10265000120020008000eb000300010080047800dd
:10266000e10f400093ff3a00020037000200e8004b
:1026700040049800480090000000e90040049800e1
:102680000d00e00002003200e24f5500040032006d
:102690000a00fb008080eb001c00320010003700b5
:1026a000684890000004e00009003a00cfb09700ad
:1026b0000100e00003003200bfb197008009eb0089
:1026c000030037008fe897007fb09700014878003b
:1026d0000d00e00002003d00dfb1970033049800d8
:1026e0001100200009003700480090000000e900b8
:1026f0004004980018009000980178000001eb0059
:102700008900780003000100ddff37000100780038
:102710004f0778004f06be004f05be004f04be00b5
:102720000f01b100000006000200fa00889fbe0001
:102730008a9fbe008c1f7800800578000105780014
:10274000020678000100e00001003a006c855700a5
:102750000b047800010037000804e8009844780072
:102760000900fb0078fb07000000e000faff3a00d8
:10277000d0c2b30080cf54000500320000c0e90091
:1027800080cf5400020032008044780001003700fe
:102790000804e8000c0178008a007800080078003e
:1027a0003b0007000203be000002be009a0f540067
:1027b00001003a000b0d78009a8f550005003a0091
:1027c000e00f5200e08f5a00e00f5b00e08f5b00eb
:1027d00014003a00b0c2b30080cf540006003a00a3
:1027e000e00f5200e08f5a00e00f5b00e08f5b00cb
:1027f00020003d000b003700d0c2b30080cf540052
:102800001c003a006000b80002002000030028000d
:102810000020e10001a8e10002b0e10003b8e100fe
:102820000e00360020022000404588006b4040002a
:1028300080cf540004003a006000b800020020007d
:10284000030028000d003700f0ff2f00f1ff2f00dc
:10285000f2ff2f00f3ff2700080037006000b800e8
:102860006011b80004025000858258000603590028
:10287000878359000400be000601be004f067800a1
:102880004f05be004f04be000080fa0000000600a5
:10289000fc874700889fbe008a9fbe008c9fbe00b9
:1028a0008e1f780000077800810678008204780087
:1028b00000047800010037000804e800184678009a
:1028c0000c00fb0020fb07000000e000faff3a00cc
:1028d000d0c2b300804f56000500320000c0e900ae
:1028e000804f560002003200004678000100370099
:1028f0000804e8000900e00005003500e18f5400fd
:102900000300320040022000808f54000400340095
:102910000d00e000b00032008e0e7800ae003700ef
:102920000900e0000e003400f08f54001a003a0055
:1029300000c3b300984f100016003a009840900072
:1029400080c7b30080cf50000300320080c5b300c1
:1029500080cf50000f003a000884e8000e003700d6
:10296000a900200000c3b300984f10000a003a00ed
:102970009840900080c7b30080cf50000400320020
:102980008900200080c5b30080cf500002003a00cb
:102990000884e800090120000805780000c3b3009e
:1029a000010037000a05e8009a4f1000fdff3200d1
:1029b0008a0578006022b8006033b800260037002e
:1029c0007077220080c0500081ef9f0009027800dc
:1029d000cfa2de0005037800860378000fb09700d1
:1029e0009fb097002fb19700bfb197003c0407003c
:1029f000d0b79f00e1b79f00f2b79f0083bf9f0051
:102a00000fe897000002fb00cfa2de00050378006c
:102a1000860378008b05e8000fb097009fb0970001
:102a20002fb19700bfb19700c0af9f00d1af9f00fb
:102a3000e2af9f00f3af9f005fb09700efb0970049
:102a40007fb197008fb997000002420081824a004f
:102a500002034b0083834b0084b79f0095b79f0010
:102a6000a6b79f00b7b79f001b00fb006a000700d6
:102a7000800078000901780070772200dafc0700f6
:102a8000800078000000e000cdff3a008b0f54007a
:102a90000a003a000d00e0004f0032008e0e780070
:102aa0006022b8006033b80084b79f0095b79f00dc
:102ab000a6b79f00b7b79f004d0037008a8055002a
:102ac0002075220060c07c000000fb0000805000e8
:102ad0002c0033004240a90020003c008fea970000
:102ae0000500fb00cf80de00010178008201780044
:102af0000fb297009fb297002fb39700bfb3970014
:102b00000000520081805a0002015b0083815b005b
:102b10000020e10001a8e10002b0e10003b8e100fb
:102b20000e00390009027800cfa2de00050378000c
:102b300086037800590307004faa9700dfaa970081
:102b40006fab9700ffab97000400e1000588e10040
:102b50000690e1000798e1000a0032002002200000
:102b600040458800f0ff2f00f1ff2f000001be005c
:102b700080b79f0091b79f00a2b79f00b3b79f0097
:102b800011003700d0c2b300804f56000e003a004b
:102b90006000b8006011b8000fb297009fb29700b4
:102ba0002fb39700bfb397000402500085825800ee
:102bb000060359008783590084b79f0095b79f008b
:102bc000a6b79f00b7b79f000d00e00008003200d5
:102bd0008b0e7800060037006000b8006011b80066
:102be00080b79f0091b79f00a2b79f00b3b79f0027
:102bf0000fb097009fb097002fb19700bfb197001b
:102c00004f0778004f06be004f05be004f04be00c0
:102c1000cf01b10000000600800078001104b1006f
:102c2000030035009101b10001003c000050a000fc
:102c3000000006000c02e20004003d000f42ab0061
:102c4000020032000f02ab00feff32000040da004b
:102c5000feff3700889fbe0080047800f0c580002a
:102c60000000e00003003a00100007000000e00050
:102c70000a003500f0c580000900e00002003a00bb
:102c800000047800060037000004780009004000c6
:102c9000060007000000e00001003d000084eb009a
:102ca000080078004f04be00000006008000780095
:102cb0000000e00004003a00008c2100f0c588000c
:102cc00001017800060037000081eb0080982100a8
:102cd000808f500002003e00f1c588000001eb002b
:102ce0000200780000000600020ab900001bb900cb
:102cf0000200b8008100420081004300000006008d
:102d0000889fbe008a9fbe00010578000100e00098
:102d10000400350008003c000000e0002000320004
:102d20000500370060001000e080180002003b0042
:102d300001f02c001a0037000004be006011b8003a
:102d40006b0920000982cf00020039000882cf0001
:102d50000441b000694252000e00320008003b00fe
:102d600082817100610164008904d1000884d3006c
:102d70008b05e8000442e800f9ff3a00050037003f
:102d80000804440089844c008b05e9000442e900f2
:102d9000fbff3a00610107000af0a70001f0a00064
:102da0004f05be004f04be0000000600889fbe0015
:102db0008a9fbe008c1f78007e01070085013300ca
:102dc00003866c006450e1002e0032006420e100b4
:102dd000330032006150e1002f0032006120e10039
:102de0003100320085855500eb07b0000900200056
:102df00008042000050037000804440089844c00c2
:102e00000a0031000603430087834b000001530092
:102e100081815b00f8ff33000203be000800a000c0
:102e20000804440089844c00f6ff3900c639dd00ef
:102e30008301730001003200130020008904d100d7
:102e40000884d3000998a300050032000800a700f9
:102e50000300a0008904d1000884d3008b05e8009a
:102e60008904d1000884d3000001eb000281d20064
:102e70002a01070001f0a1000cf0a70001f0a0005a
:102e80005d0137006420e1005f0132000801be00ef
:102e90000200be00f7ff37006120e1005a01320056
:102ea0006000b800f3ff37000000200001f82700a1
:102eb000f0ff37000001be00560107000470a700b4
:102ec00003f0a1006509b100160032000d003500c5
:102ed0006828e10006003500f0ff2f00f1ff270011
:102ee0000300e00013003b00010028000000050083
:102ef00000004000818048008502e900fcff3a00a4
:102f000008003700f88f420002003c008000eb0010
:102f1000000005008100d1000080d3008502e80098
:102f2000fcff3a000300e00002003b0060001000dc
:102f3000e080180000000600839f68000100e000a8
:102f400002003d0060001000e08018000300e00077
:102f500002003d0060011100e081190042010700fc
:102f60004f00e00002003b0060001000e08018000d
:102f700000000600889fbe008a9fbe008c1f78005c
:102f80000004be00230107000478a30026003a00d5
:102f90006120e1002500320009f8a30025003a0075
:102fa0006420e10021003200f507b1000508a3000c
:102fb0000200320000004000818048006044b800f8
:102fc0000310200002002000000040008180480023
:102fd0000805440089854c000a0541008b8549009d
:102fe0000a0550008b855800030033000a00be001c
:102ff00002047400838474008301d1000281d30031
:10300000830f7100f0ff3a008904d1000884d300d7
:103010006001490082017800c1adde00fb07b0000d
:10302000be000700f40037000960a0000800be00e1
:10303000f10037001202200042458800f0ff2f0007
:10304000f1ff2700ec003700889fbe008a9fbe007a
:103050008c1f7800d70007001002200002003b0000
:1030600040458800db0037008a0062006408e10008
:1030700002003a0040458800e30037006108e100a3
:10308000fcff32000800be000304780047ff070081
:1030900001f0a1000401070008f0a60004003700b9
:1030a0000001be0091042400b0fd2000370007009d
:1030b00009f0a70001f0a200cf003700889fbe00f2
:1030c0008a9fbe008c1f7800ba000700c100330041
:1030d00003866c006450e100240032006420e100ab
:1030e000270032006150e100220032006120e1003f
:1030f000210032008b854200eb07b1000134b8009b
:10310000003ab8000804420089844a00013ab80035
:103110000030b8008880400009014a0004003300f4
:103120000000400081804800020149008b05e90051
:10313000c909dd0083017000010032001300200086
:10314000c814de004814dd004709de001200b2009a
:10315000c808de00088470007000070001f0a100bc
:103160000cf0a70001f0a000a30037006120e100ef
:10317000a50032000801be000200be00f7ff3700c4
:103180006150e100fcff3a009f00370003f0a2000d
:10319000889fbe008a9fbe008c1f780085000700b4
:1031a0008c0033006450e1004f0032006420e100e5
:1031b0005200320003826c0007003b000905d0007a
:1031c0000306d000820f54000c065d000200390097
:1031d00002003200890178000306780085825500dc
:1031e00004003d000003fd008103fd008502ea00ac
:1031f0008b854200840f720002003b0060001000cb
:10320000e08018006011b8000005eb007a28e100aa
:103210000a00390006007800c75ddd00f707b2003c
:10322000878075002d003700828171000a017800c7
:10323000610560008180d1000080d3008502e90033
:10324000f9ff3b00060440008784480002003b0071
:1032500060041400e0841c000988a3000700320009
:103260008a81710082817100610164008904d1004a
:103270000884d3008b05e800170037000978a30005
:1032800013003a000b00e000130034008b05e90046
:103290000804440089844c000a4474000978a3009f
:1032a0000d003a000b00e000070034008b05e90038
:1032b0000804440089844c0001003a000b002000ff
:1032c0000978a300f7ff32000001eb00020037008d
:1032d000828171000a017800100007000cf0a7003d
:1032e00001f0a000440037006420e10002003a0031
:1032f000838f6c00440033000801be000200be0052
:103300003d00370014002000cc003700f4ff2f00f0
:10331000ca00370004002000c800370081002000e8
:10332000618055000b003d000b00200061fe2f0066
:103330000100e1001d003400828171006101640020
:103340008904d1000884d3000000e800faff3a00a5
:103350007100200061006400030070000200600042
:103360000900320061044400e0844c000988a50093
:10337000050032008b05e8006808e10002003a0011
:103380008904d1000884d300f20f20000258e10024
:1033900005003d00c75ddd00f907b20089807500ba
:1033a00008007800000006000bf827008b0078006a
:1033b000000005000004be00160007000003be0068
:1033c0000405be000200be0012000700844f750015
:1033d000000006000200be006450e1000500360057
:1033e0006420e100020036000968a30001003a00f1
:1033f0000800be000160a0004f0678004f05be0027
:103400004f04be0000000600f0ff2f00f1ff270070
:10341000f9ff3700c70ade00f107b200f50fb2006e
:1034200008003200e1cf4200020032000170a0002b
:1034300024000500810f700001003200040805001f
:1034400044000500810f700002003a0014000500de
:103450008502e9000000400081c04800fcff3b00fd
:103460000170a000240005006022b80006022000c0
:103470000000d0008180d2000482d2008582d20078
:103480000000a0000202520083825a0003003100b3
:103490000202420083824a000000a1000603e90004
:1034a000f3ff3a0000000600889fbe008a9fbe001e
:1034b0008c9fbe000004be00d6ff07000800be00bf
:1034c000890678006420e100080039000400320019
:1034d0000160a0001202200042458800530037001e
:1034e00091fc2300b0fd20004e0037000006eb00e9
:1034f00009f0a10003f82300020020000800be002c
:1035000080ff07000600340001f8230000002000bf
:103510000801be0025fe07000004be002c002000ac
:103520000800be0093e82300320a230075ff07005d
:10353000120034000801be00d1fd2300703d2b00b5
:1035400013ff07000005be00b3f32300f27a260044
:103550000800be00d9fe070003f823000200200087
:103560000aff07000801be0009ff07000a01be00ac
:103570000efe07000004be000c06e8000800be00b6
:1035800001f0a10002002000039823005dff070066
:103590000800be00160035000801be00c7fe070087
:1035a0000005be0032cd2c0043fb2300f8fe0700cf
:1035b000809fbe001269280003d52b000a00be00c0
:1035c000befe0700620f210013ef2b00f0fe070084
:1035d0000a01be00b9fe07004f01be00f3fd07005f
:1035e0000801be00b5fe07000801be00e8fe0700a6
:1035f0000c00e0000b0032000c10a70001f0a2004c
:10360000b2fd200093fc23006260e1000400320060
:1036100022a9200063f023000c10a70063f8230008
:10362000dbfe07000df0a70001f0a2004f06be0070
:103630004f05be004f04be0000000600889fbe007c
:103640008a9fbe00841f78005aff07004f00780051
:1036500011003300f0ff2f00838f6c0006003b0049
:10366000040565000a00a7000800370009f0a6005d
:103670001000200008003700820f5400838f5c0088
:10368000030039001000200001003e00000020006f
:1036900009f0a7000000ea004f05be004f04be007d
:1036a0000000e000000006006fff07000400be00fd
:1036b00000000600881f7800000478005001be005a
:1036c0004000be000400400085804800060149001b
:1036d00087814900009cbe000294be000400e10006
:1036e0000588e1000690e1000798e1000200310042
:1036f000680044001008e8004f047800000006004d
:10370000f4874700889fbe008a9fbe008c9fbe0042
:103710008e1f78000205be000004be00d4b79f00d3
:10372000e5b79f00f6b79f0087bf9f000000eb0042
:10373000c0b79f00b0b79f00a0b79f0090b79f0091
:1037400080b79f000d042000bfb097004fb09700d6
:10375000000140000000e0000f003d004f08de00c7
:1037600000007100c0b79f009e00070001003d00ef
:1037700012002000a100070001003d0012002000ff
:10378000a6000700b1000700b60007000f004000c8
:10379000c8ff0700220037004f08de000006710056
:1037a000ccb79f008f00070001003d0012002000f1
:1037b0009200070001003d00120020009700070062
:1037c000a20007000fb297009fb297002fb3970097
:1037d000bfb39700a90007000000520081805a0083
:1037e00002015b0083815b0080b79f0091b79f005f
:1037f000a2b79f00b3b79f000007eb009f00070030
:103800000020e10001a8e10002b0e10003b8e100fe
:10381000010031001e0020000e005600c0b79f00be
:103820004fb297000400e0000700350010002000b0
:10383000010020006011b800080470008984700045
:103840000a0571008b8571008d06e900beff3a0004
:103850000400e00003003d00820007000f0040006c
:1038600094ff07004fa897000000e00004003a0012
:103870000fb497009fb497002fb59700bfb597007e
:10388000940007004f0778004f06be004f05be00aa
:103890004f04be004f01b10000000600881f7800f1
:1038a00018002000881f780095ff07008f87e90027
:1038b0004f04780000000600801feb0090ff070017
:1038c0008f87e90000000600889fbe008a9fbe0027
:1038d0008c1f78006e00070007003d007300070092
:1038e000e00f5b00e08f5b0007003d003200070047
:1038f0000006eb00040037003400070002003d0022
:103900002a0007001c00200072000700e3ff0700e8
:103910000203be000002be000c00e0000100320005
:10392000220007000400be000601be004f0678001a
:103930004f05be004f04be0000000600889fbe0079
:103940008a9fbe008c1f78005100070005003d00d3
:1039500056000700e00f5b00e08f5b0006003d00b3
:10396000040037001900070003003d006000b800a4
:103970006011b8001000070056000700ceff0700d6
:103980000203be000002be000c00e0000100320095
:10399000060007000400be000601be004f067800c6
:1039a0004f05be004f04be00000006006000b800d6
:1039b0006011b800000037000402500085825800f2
:1039c0000603590087835900000006000006eb003b
:1039d000e00f5200e08f5a00e00f5b00e08f5b00c9
:1039e000000006000180400090b79f000001eb003e
:1039f0008fb097000100e000000006000200700098
:103a000090b79f000180400080b79f000001eb004d
:103a1000ffa897000100e00000000600020070000f
:103a200080b79f00018040006faa9700cf20de0082
:103a300001007000f0af9f00040242002500070063
:103a40004f18de000002720000000600e4af9f0085
:103a50000804440089844c000a054d008b854d0004
:103a6000000006003fb29700cfb297005fb3970007
:103a7000efb3970000fe2f00000006003fb0970054
:103a8000cfb097005fb19700efb19700000006003c
:103a90000205be000004be00e00f5000e08f580099
:103aa000e00f5900e08f5900000006006000b800e8
:103ab0006011b80008045000898458000a055900b4
:103ac0008b8559001c002000e00f5200e08f5a0047
:103ad000000006000800be000a01be00000006004b
:103ae000889fbe008a9fbe008c1f78000205be0022
:103af0000004be000006eb00e00f5000e08f58000d
:103b0000e00f5900e08f590007003d006000b80049
:103b10006011b80008045000898458000a05590053
:103b20008b8559001c002000e00f5200e08f5a00e6
:103b3000e00f5b00e08f5b0002003d000f0007001c
:103b40000c00a2000800be000a01be00120007001f
:103b50000203be000002be000c00e00001003200c3
:103b6000060007000400be000601be004f067800f4
:103b70004f05be004f04be00000006006000b80004
:103b80006011b800040250008582580006035900f5
:103b90008783590000000600889fbe008a9fbe00f0
:103ba0008c9fbe000404b8000506b80089044600d6
:103bb00060854e000606b8000a054600e0854e0006
:103bc0000706b8008b054600040eb80089044600bd
:103bd0000a854e00e0854d00050eb8000a05460036
:103be0008b854e00060eb8008b0546000416b80003
:103bf0000a0546008b854e000516b8008b05460069
:103c0000041eb8008b0546000800be000a01be0075
:103c10004f06be004f05be004f04be000000060068
:103c20004600f8005000f800022020003202880010
:103c300002002800130020008019dd0002817100bd
:103c4000820288000100780001017800260020002f
:103c5000470020008301e9000380080007000000fe
:103c60000110e100040034001102be009208780047
:103c7000e2307b000489be00878040001219780082
:103c80005000f9004600f90000000600889fbe00c1
:103c90008a9fbe008c9fbe004400f800070f2000e2
:103ca000270288003400f80007f02f000338e100f5
:103cb00004003200270280004700b300270288007a
:103cc000a3018800811f780019002000804cdd00ce
:103cd0001300200002047800800678008904d100d7
:103ce000424edd00010578000302e900048008006f
:103cf000160000008a0546004218dd000902e900ae
:103d0000048008000f0000004620c3003b02520060
:103d1000df35c100080440001381c200ab825200ad
:103d2000264dc5003e85c400bb00cd00bb80cd0044
:103d30003a00ca002a80ca000700c9000580c900ed
:103d4000ba00cd00ba80cd000a0546000204780012
:103d50008301d0008d06e900e0ff3c004f007800b1
:103d60003400f9004400f9004f06be004f05be00c4
:083d70004f04be000000060034
:020000040000fa
:0200000401f009
:04000000e6ff000017
:020000040000fa
:0200000401f009
:04000400ff7f00007a
:020000040000fa
:0200000401f009
:040008007fff000076
:020000040000fa
:0200000401f009
:04001400ffff0000ea
:020000040000fa
:10000800260c0100260c0100260c0100260c01001c
:10001800260c0100260c0100260c0100260c01000c
:1000280080000100260c0100260c0100260c0100ae
:10003800260c0100260c01002cfe0000260c0100f5
:10004800260c0100040b0100660a0100a0e700006d
:10005800260c0100260c01009aee0000260c010077
:10006800260c0100260c0100260c0100260c0100bc
:10007800260c0100400b0100a0040100260c010021
:10008800260c0100260c0100260c0100260c01009c
:10009800260c0100260c0100260c0100260c01008c
:1000a800260c0100260c0100260c0100260c01007c
:1000b800260c0100260c0100260c0100260c01006c
:1000c800260c01007a0901001aba0000260c01006a
:1000d800260c0100260c0100260c0100260c01004c
:1000e800260c0100260c0100260c0100260c01003c
:0800f800260c0100260c01009a
:020000040000fa
:10010800260c0100260c0100260c0100260c01001b
:10011800260c0100260c0100260c0100260c01000b
:1001280080000100260c0100260c0100260c0100ad
:10013800260c0100260c01002cfe0000260c0100f4
:10014800260c0100040b0100660a0100a0e700006c
:10015800260c0100260c01009aee0000260c010076
:10016800260c0100260c0100260c0100260c0100bb
:10017800260c0100400b0100a0040100260c010020
:10018800260c0100260c0100260c0100260c01009b
:10019800260c0100260c0100260c0100260c01008b
:1001a800260c0100260c0100260c0100260c01007b
:1001b800260c0100260c0100260c0100260c01006b
:1001c800260c01007a0901001aba0000260c010069
:1001d800260c0100260c0100260c0100260c01004b
:1001e800260c0100260c0100260c0100260c01003b
:0801f800260c0100260c010099
:020000040000fa
:103d780061250000632c0000256400002c2500004c
:103d8800642c0000256400000d0a000000420000b9
:103d98002c250000640d000000620000256300006f
:103da8000d0a000000630000256300002c250000b8
:103db800640d00000a000000442c00002564000087
:103dc8002c250000640d000000640000256300003d
:103dd8000d0a000000650000256300002c25000086
:103de800642c0000256400000d0a00000046000055
:103df8002c250000640d000000660000256300000b
:103e08000d0a000000670000204900005220000051
:103e180063680000656300006b2000003a20000022
:103e280030780000257800002c2000006164000034
:103e38006472000065730000732000003a200000df
:103e480030780000257800002c2000006461000014
:103e580074610000203a000020300000782500003e
:103e6800780d00000a0000000a000000224100004e
:103e78002220000020200000202000002020000038
:103e88002020000041630000636500006c650000ad
:103e9800726f00006d65000074650000720d00000f
:103ea8000a000000224200002c230000222000000b
:103eb800202000002020000020200000426f000089
:103ec80064790000206c0000656400002030000068
:103ed8003d6f000066660000203100003d6f000065
:103ee8006e200000323d0000696e0000766500001b
:103ef80072730000650d00000a00000022430000f4
:103f080022200000202000002020000020200000a7
:103f180020200000536500006c65000063740000f9
:103f28006f720000207000006f7300006974000059
:103f3800696f00006e0d00000a00000022440000b6
:103f48002c2300002c230000222000002020000049
:103f58002020000053650000742000006d6f0000f1
:103f6800746f000072200000737000006565000027
:103f7800642000006c650000667400002c7200006c
:103f880069670000687400000d0a00000022000044
:103f980045220000202000002020000020200000f2
:103fa800202000002047000065740000206d0000fc
:103fb8006f7400006f7200002073000070650000cd
:103fc80065640000206c000065660000742c000029
:103fd8007269000067680000740d00000a000000a4
:103fe800224600002c230000222000002020000090
:103ff8002020000020200000467200006f6e0000a4
:10400800742000006c65000064200000303d000052
:104018006f66000066200000313d00006f6e0000f2
:10402800203200003d6900006e76000065720000d5
:10403800736500000d0a00000022000047220000fe
:104048002020000020200000202000002020000068
:1040580020490000522000007265000063650000de
:1040680069760000657200000d0a00000022000059
:104078004822000009200000202000002020000025
:10408800486500006c7000000d0a00000022000066
:1040980049220000202000002020000020200000ed
:1040a8002020000020470000657400002063000005
:1040b800616d000065720000612000007061000001
:1040c800726100006d65000074650000720d0000eb
:1040d8000a000000224a00002c2300002c230000c4
:1040e8002c2300002c230000222000005365000030
:1040f80074200000636100006d65000072610000bb
:104108002070000061720000616d0000657400009d
:1041180065720000206d00006f640000652c0000cf
:104128007769000064740000682c0000686500006e
:1041380069670000746800002c7a00006f6f000047
:104148006d280000312c0000342000006f72000040
:1041580020380000290d00000a000000224b000052
:104168002220000020200000202000002020000045
:1041780020200000436100006c69000062720000aa
:104188006174000065200000707200006f78000004
:10419800696d0000697400007920000073650000f3
:1041a8006e7300006f720000730d00000a000000bb
:1041b800224c00002c2300002c23000022200000a9
:1041c80020200000202000004c6500006420000032
:1041d8006e7500006d620000657200002c300000f2
:1041e8003d6f000066660000203100003d6f000052
:1041f8006e200000323d0000696e00007665000008
:1042080072730000650d00000a000000224e0000d5
:104218002220000020200000202000002020000094
:1042280020200000507200006f780000696d0000c7
:1042380069740000790d00000a000000224f000098
:104248002220000020200000202000002020000064
:10425800202000004c6900006768000074200000fe
:10426800736500006e7300006f720000730d00002c
:104278000a000000225000002c2300002c2300001c
:1042880022200000202000002020000053650000ac
:10429800742000006d6f0000746f00007220000031
:1042a800706f000073690000746900006f6e000091
:1042b800206c000065660000742c00007269000024
:1042c80067680000740d00000a0000002251000019
:1042d80022200000202000002020000020200000d4
:1042e8002020000047650000742000006d6f00006a
:1042f800746f000072200000706f00007369000086
:10430800746900006f6e0000206c00006566000094
:10431800742c00007269000067680000740d0000ca
:104328000a00000022520000222000002020000085
:1043380020200000202000002020000052650000fe
:104348007365000074200000652d00007075000082
:10435800636b00000d0a00000022000053220000d9
:104368002020000020200000202000002020000045
:1043780020530000746f000070200000652d0000bd
:1043880070750000636b0000206100006e6400001f
:1043980020740000757200006e2000006f66000037
:1043a800662000006c650000647300000d0a0000c0
:1043b80000220000542c00002322000020200000ce
:1043c8002020000020200000205000006c61000028
:1043d80079200000736f0000756e000064200000f3
:1043e800312d000035200000656c00007365000069
:1043f80020730000746f000070200000736f0000cd
:10440800756e0000640d00000a00000022550000cf
:104418002220000020200000202000002020000092
:104428002020000047650000742000006d6900002e
:10443800637200006f700000686f00006e65000016
:10444800206100006d7000006c6900007475000048
:10445800646500000d0a00000022000056220000da
:104468002020000020200000202000002020000044
:104478002056000065720000736900006f6e00002e
:10448800206f0000662000005365000072430000a2
:104498006f6d00000d0a0000006900002563000030
:1044a8002c250000642c0000256400002c25000049
:1044b800642c0000256400002c250000640d000019
:1044c8000a0000004a2c0000256400002c2500008a
:1044d800642c0000256400002c250000640d0000f9
:1044e800006a0000256300000d0a0000006b000050
:1044f800256300000d0a0000004c00002c25000078
:10450800642c0000256400000d0000006c250000ec
:10451800630d00000a0000006d250000632c0000f8
:10452800302c0000302c0000300d00000a00000084
:104538006e250000632c0000256400002c25000077
:10454800642c0000256400002c250000642c000069
:10455800256400002c250000642c00002564000060
:104568002c250000640d00000a0000006f250000e3
:10457800632c0000256400002c250000642c00003a
:10458800256400002c250000642c00002564000030
:104598002c250000642c0000256400002c25000058
:1045a800640d00000a000000502c00002564000083
:1045b8002c250000640d0000007000002563000039
:1045c8000d0a000000710000256300002c25000082
:1045d800642c0000256400000d0a00000072000031
:1045e800256300000d0a0000007300002563000029
:1045f8000d0a0000005400002c2500006400000093
:1046080074250000630d00000a00000075250000f5
:10461800632c0000256400002c250000642c000099
:10462800256400000d0a00000076000025630000e4
:104638002c200000444d0000205600006572000048
:10464800736900006f6e0000203000002e330000f8
:104658002032000030310000310d00000a00000057
:10466800582c0000256400000d0000007a25000089
:10467800632c0000436f00006d6d0000616e000048
:10468800642000006e6f000074200000666f000058
:10469800756e0000640d00000a000000ff7f000036
:1046a80000000000f67f0000dcfc0000d97f00005d
:1046b800b8f90000a77f000095f60000627f0000af
:1046c80074f300000a7f000055f000009d7e000092
:1046d80038ed00001e7e00001eea00008a7d000002
:1046e80007e70000e47c0000f4e300002a7c0000f7
:1046f800e6e000005d7b0000dcdd00007d7a000064
:10470800d8da00008a790000d9d700008478000040
:10471800e1d400006c770000efd100004276000081
:1047280004cf00000575000021cc0000b67300001e
:1047380046c900005572000073c60000e37000000f
:10474800a9c300005f6f0000e9c00000ca6d000047
:1047580032be0000246c000085bb00006e6a0000b9
:10476800e3b80000a76800004cb60000cf66000060
:10477800c0b30000e864000040b10000f26200002d
:10478800ccae0000ec60000065ac0000d75e000015
:104798000aaa0000b45c0000bda70000825a00000d
:1047a8007ea50000435800004ca30000f655000009
:1047b80029a100009b530000149f00003451000001
:1047c8000e9d0000c04e0000189b0000404c0000e9
:1047d80031990000b4490000599700001d470000b6
:1047e800929500007b440000dc930000ce4100005d
:1047f80036920000173f0000a1900000573c0000cf
:104808001d8f00008d390000ab8d0000ba36000006
:104818004a8c0000df330000fb8a0000fc300000f7
:10482800be890000112e0000948800001f2b000094
:104838007c870000272800007686000028250000d5
:104848008385000024220000a38400001a1f0000b2
:10485800d68300000b1c00001c830000f918000020
:1048680076820000e2150000e3810000c812000013
:1048780063810000ab0f0000f78000008c0c000083
:104888009e8000006b090000598000004806000067
:1048980028800000240300000a80000000000000b7
:1048a80000800000dcfc00000a800000b8f900006d
:1048b8002880000095f600005980000074f300007d
:1048c8009e80000055f00000f780000038ed0000e1
:1048d800638100001eea0000e381000007e7000092
:1048e80076820000f5e300001c830000e6e000008b
:1048f800d6830000dcdd0000a3840000d8da0000c5
:1049080083850000d9d7000076860000e1d4000036
:104918007c870000efd100009488000004cf0000dd
:10492800be89000021cc0000fb8a000046c90000b7
:104938004a8c000073c60000ab8d0000a9c30000bc
:104948001d8f0000e9c00000a190000032be0000e9
:104958003692000085bb0000dc930000e3b800003d
:10496800939500004cb600005a970000c0b30000b1
:104978003199000040b10000189b0000ccae000047
:104988000e9d000065ac0000149f00000aaa0000fc
:1049980029a10000bda700004ca300007ea50000cf
:1049a8007ea500004ca30000bda7000029a10000bf
:1049b8000aaa0000149f000065ac00000e9d0000cc
:1049c800ccae0000189b000040b1000031990000f7
:1049d800c0b300005a9700004cb600009395000041
:1049e800e3b80000dc93000085bb000036920000ad
:1049f80032be0000a1900000e9c000001d8f000039
:104a0800a9c30000ab8d000073c600004a8c0000eb
:104a180046c90000fb8a000021cc0000bf890000c5
:104a280004cf000094880000efd100007c870000cc
:104a3800e1d4000076860000d9d700008385000005
:104a4800d8da0000a3840000dcdd0000d683000073
:104a5800e6e000001c830000f5e300007682000019
:104a680007e70000e38100001eea00006381000000
:104a780038ed0000f780000055f000009e8000002f
:104a880074f300005980000095f6000028800000ab
:0c4a9800b8f900000a800000dcfc0000ff
:020000040000fa
:104aa40006000000260000001f00000012000000a5
:104ab40027000000180000001c0000002d0000006a
:104ac40041000000fd000000e5000000320100008c
:104ad4008b0200001e0200004400000024ff0000be
:104ae400b8fe0000bdfe00003dff000027ff0000ef
:104af4003dfe000026fe00009efc0000dcf90000e4
:104b04003bfe0000c908000044100000d60e00005f
:104b14009405000033fb00005ff600008ff70000ef
:104b24008afa00008afb0000a3fa0000a1fb00003f
:104b340021010000e7080000a60d00001a0c000087
:104b4400bb03000046fb0000a9f80000d3f90000f5
:104b540037fd00004aff00005afe0000c3fd0000bc
:104b6400d6ff0000f90300002c060000d801000065
:104b7400d0f8000029f80000cf030000ff0f000068
:104b84007f110000d406000014f9000088f2000030
:104b9400ddf5000006fd00007a0000009ffd000026
:104ba40059fa000033fd000016060000d30d000082
:104bb400b20d0000ec04000025f9000007f5000028
:104bc4009bf8000020ff0000150300000001000016
:104bd400adfd0000e6fd0000a7020000270700006d
:104be4008703000013f7000027f100003dfd0000db
:104bf400bd100000b41900009e100000f7fd000075
:104c0400c3f00000d8f000003ff900003bff0000b3
:104c1400b2fc000016f7000030f80000c6010000e6
:104c2400a20d0000211300003a0d0000a5010000b0
:104c3400acf8000082f5000006f9000051fd000008
:104c440048fd000002fb0000f7fa0000c9ff000065
:104c5400d70600002e0700001afd00004bf60000e6
:104c64002dff0000980f0000d21600009b0d0000dd
:104c7400a4fb000013ef0000a5ef00005ff80000a4
:104c840010ff00009efd000076f900007dfa000090
:104c940021010000390b0000b11200005010000087
:104ca4001006000049fa0000bbf20000edf300001a
:104cb40083f9000095fc000066fc0000c6fb0000c0
:104cc40015ff00003005000078040000befc000061
:104cd40022fb00003006000051130000be13000048
:104ce400bf050000a0f40000beec0000cbf0000003
:104cf4003bf9000017fd00004ffa000009f900001d
:104d04007cfc00008e030000790d0000db12000023
:104d1400470e0000c7010000c8f40000b1ef000016
:104d2400e5f300002cfa000026fc00001dfb000047
:104d3400d7fa00005e00000017060000d40100004e
:104d440011fa0000f6fc0000120c000036170000f7
:104d54009511000010ff000067ee0000e5ea000076
:104d64005ef200002afb000032fc0000abf80000f9
:104d740087f900007bfe000027080000981300005c
:104d840000160000000d0000c8fd00004cf00000fb
:104d940057ed0000c0f30000e1f90000cffb000074
:104da40077fa000065fc00001d040000980600006e
:104db400ea00000094fd000044070000b414000061
:104dc4008d1400003204000080f0000075e800003b
:104dd40049ee00001df90000defd00009afa000013
:104de400f2f9000009fe0000ec0400007a0f000054
:104df4007c1500000d1200004c050000ebf40000cf
:104e0400d3eb00000fef000015f70000e4fb0000f7
:104e1400d8fb0000d8fa00008d0100005c070000f8
:104e240079050000ef010000450600006b11000049
:104e3400d1130000d40600006df3000041e9000026
:104e440040ed00005df8000088ff000070fd0000e8
:104e54004bfc00005eff0000fe020000f1090000b0
:104e6400dc110000fa1500000a0f0000d5fd000057
:104e740021ee00002aeb0000e7f2000006fb000030
:104e8400a4fd0000dffa000071fe00009805000098
:104e9400cc0800008a0a0000b80b0000f50e0000e0
:104ea400d40d0000020300002af400008cec000082
:104eb4009fef000020f8000077ff0000feff0000d5
:104ec40050010000ca030000ee01000010020000bf
:104ed400e7090000ab160000bd180000ff08000041
:104ee400daf20000b5e7000046ed00000df900001d
:104ef400a0ff00002cfc000085fa000086010000e1
:104f040060080000780f0000d9120000e8100000cb
:104f1400ae0a0000bffe0000daf2000031ee00002d
:104f240047f2000040f8000091fd0000f3fe00008d
:104f3400c802000089080000940500002800000051
:104f4400bf0100003a0f0000181a0000db11000036
:104f54000cfb00008ee800002ae800005ff400006b
:104f6400deff00009bff0000bcfa000037fe0000db
:104f7400fe030000eb0a0000d31000003c13000005
:104f8400ea1000000c05000059f5000042ec000096
:104f94000fef000001f60000c1fb000026fc00003a
:104fa400d9fd000011060000b90800001108000036
:104fb40034070000850a000086100000630c00001e
:104fc400c9fc00000aed0000cee90000bef10000bb
:104fd400fdfc0000530100005cff00000102000022
:104fe400af02000067020000190700002d0f000047
:104ff400e31500001c0f000057fc0000eceb000060
:10500400c0e9000065f2000030fb00001dfd000057
:1050140016fa0000c4ff00004f0700003809000022
:10502400070b0000a90b0000e90d0000950b000020
:1050340065ff0000ebf00000ffea000058ef0000fd
:10504400c1f7000087fe0000b8fe00005d0200000a
:10505400b70600000a040000f70200005906000029
:10506400ca0f0000251400003c0800002ff40000c3
:1050740050e80000d7eb0000a7f60000a7fe0000f0
:1050840024fd000006fc00002303000023060000aa
:10509400430700009d090000110e0000b611000036
:1050a4004c09000040f800004deb000001eb00004b
:1050b400c6f2000032fb000078fd000085fd000010
:1050c400d4040000ff07000041070000cf080000df
:1050d4000e0b0000f60e00007a0a0000b5fb00007b
:1050e400d3ed0000e9ea0000fff1000027fb000017
:1050f40001000000b6fe00002d03000008070000b8
:1051040058030000dc020000870700005f11000064
:105114001014000081060000f5f20000ade8000064
:10512400eeec00008bf70000f8fe000096fd000096
:10513400f4fd0000c7050000d1070000e2070000ed
:1051440046090000900c000027100000c108000070
:1051540011f900009eec0000d1eb0000c4f3000044
:1051640047fd0000d1000000d4ff0000300500001e
:105174001807000097040000a60500008908000035
:10518400ab0e0000810e00005902000019f300006c
:1051940026ec00008ff00000f5f90000820000000a
:1051a400fefe0000deff00003c0500001a040000c3
:1051b4002c030000bf060000330e0000891300001a
:1051c400fb0b0000cffa0000e0ec000072eb0000e3
:1051d400c3f3000016fd00008dff00005ffd00001a
:1051e400af020000d60700002f060000e60500000d
:1051f40039080000e00c0000640d0000da03000030
:10520400daf50000dfed0000b3f0000038f900002b
:105214001d000000fffe00002afd00004102000006
:105224009d0300000a030000eb060000b70b00001a
:105234001f0f0000fb0b000066ff0000baf2000025
:1052440083ef00006cf40000c2fa0000a5fc00002b
:105254007bf900003bfc00008a0500009606000074
:10526400c403000037060000310c00006d1000007c
:10527400c00a0000b8fb000080ef000016ee00003a
:10528400e0f4000092fb00004cfc0000f1f8000088
:10529400b2fd0000c50700004c0700000a0300002f
:1052a40077040000540b00007d100000cc090000be
:1052b400cbfa0000f9ef000099ef00001df60000a2
:1052c40040fb000068fa00005af700008afd000065
:1052d4002e0800005808000017040000b104000064
:1052e400440a0000750e0000220900002dfc000095
:1052f40072f10000e1ef00005bf50000ccfa000061
:10530400a4fb00007df90000e6fe0000d9070000c0
:10531400e50600005602000080030000c9090000f1
:10532400f30d0000dc09000001ff000081f500001e
:105334000df2000028f40000a3f80000ccfa0000ed
:10534400b5f90000aefd000075060000e606000099
:1053540065010000c50100003d0a00003d11000088
:10536400bd0e0000e901000093f4000077ef000097
:1053740062f200005ef8000069fa0000f9f800002b
:10538400ccfb00002d070000240d0000880600005f
:105394001b010000a7030000ba0800001d0c000058
:1053a400650700009bfb00005ef20000def00000d9
:1053b40054f7000074fe000031ff000046fb0000bb
:1053c4006afe0000c0040000ec02000087ff000039
:1053d40082040000090e0000aa120000530e00000f
:1053e400a5000000e8f3000011ef0000e6f1000062
:1053f400a7f7000032fa000003fa0000a0fe000044
:10540400450a0000f90c0000de02000024fd000043
:1054140040040000490e0000da1000006e0800008d
:10542400f7f90000d3f00000a0f00000f5f600004a
:10543400dafc000072fd0000c0fb00005401000013
:10544400c50a0000180800004afe000030fd0000f4
:1054540026070000de1000009d110000290700004f
:10546400a1f800007bf0000003f20000d2f8000075
:10547400c1fb0000faf90000f6f900007f04000007
:10548400cb0e0000f6080000b9fd000063fe00002a
:10549400ec080000f40e0000510c0000740200003f
:1054a400cef70000d6f200000bf5000088fa0000e9
:1054b400c6fb0000bbf9000037fa00002905000014
:1054c4001a0e000084050000f1f9000087fd0000b9
:1054d400c30c00001e150000580f00000d00000052
:1054e400d0f2000083ef000057f40000c2fa00007d
:1054f40009fb000091f80000e6fa0000e50700004f
:1055040037110000e205000067f60000eef8000025
:10551400740b00009a170000b6110000ecff0000a5
:1055240001f10000d2ee00004af500006efb00001d
:10553400fff9000037f6000076f900006c0800005f
:1055440045140000eb08000002f50000aaf3000077
:1055540002070000d91600003a130000f801000009
:10556400baf20000dcf00000c8f70000edfc000017
:10557400f1f90000e2f3000013f50000520300000b
:10558400e1120000550c00006af700001ff2000051
:10559400180500005819000054180000b004000059
:1055a40047f0000036eb0000f0f30000bdfd000002
:1055b4003bfe00006ff600008bf300005afe000073
:1055c400171200006d140000b0fd000037ec00005d
:1055d40004f7000036110000ac1b00007d0f000032
:1055e40005fa0000dced0000a2f200000afd000054
:1055f400b3ff000072f600000dee0000fcf30000a3
:105604002f090000601a0000750d0000e5f100008c
:10561400c6eb0000d1030000491c0000ba190000c9
:105624003403000013ef00003fee000020fb0000f5
:105634002d03000042fc000031ee00006eec00007f
:105644006cfd000099160000e01a00009cfe0000aa
:1056540031e5000013ee0000bd100000e22400005c
:105664009b160000d5f9000006ea000096f1000040
:10567400290100005e030000dbf4000075e7000070
:10568400b6ee0000be070000881e0000ce16000023
:1056940016f300004ddf000070f40000e01a000073
:1056a40031260000b50d000023f00000d2ea00000e
:1056b400cffc0000ed0a0000ac0100009cea0000f1
:1056c40069e00000dcf10000bf0f00006920000069
:1056d4002f100000afea0000cfdc0000fdf900004d
:1056e40019230000402b00007d0c0000afea0000ed
:1056f400f3e80000210200002011000091000000e6
:10570400bae20000edd9000022f4000040180000c5
:1057140038250000220e0000e2e5000034d9000024
:105724003bf900000a2500008c2d00008a0d0000c2
:105734008aeb000082eb0000da050000f81200009a
:10574400e7fe000075df00004fd800008cf4000075
:105754007d180000ae220000420d00004ce900005c
:1057640097db00001ff7000094200000f22c0000db
:105774003112000044f0000072eb00003a03000014
:105784005b130000e902000015e30000c8d8000024
:10579400b9f1000099150000611f0000e00a000043
:1057a40086ef00008ce2000050ee00007f0a00004b
:1057b40093200000261f00008d0c000032fe000024
:1057c40097000000bc070000afff0000f0e80000f5
:1057d4001cda0000b2e5000039030000e6170000ff
:1057e4001a140000f803000004f5000015ef00008f
:1057f40087f90000760d00008b1800004d110000a1
:10580400bc0100006dfc0000110600004c0c0000ff
:10581400acff000061e900000fe000008ced000027
:1058240045050000c71100005b0c000090ff00005c
:1058340042f300005cef000073fc0000a9100000bc
:10584400f9190000c01300008c080000d604000001
:10585400f40500001b00000070f000003de20000b1
:1058640057e4000095f60000260a00002d10000001
:10587400550900000501000046f80000acf20000e4
:1058840099f900007b0b000051190000101600006c
:105894003008000031000000b702000009030000d6
:1058a400cbf7000005e90000e9e4000043f1000043
:1058b40051040000d60d0000fd090000b3fd0000f6
:1058c40030f10000d0f2000021060000961800001c
:1058d400d7170000c8070000b6fb0000cc0000008a
:1058e400de0b000089080000def4000081e4000003
:1058f400a5e9000032fd0000140a0000f6050000ce
:105904002efb000080f80000b7fa00008afa0000bd
:10591400f8fc000077080000d2130000dd1100003d
:10592400d9060000750100002f070000070b0000d6
:105934004b0100004af0000098e800007cf10000f0
:10594400e2fe000049020000cafc000017fb000050
:105954007b0100000e03000058f800009cf10000d9
:10596400c5000000ed170000e31a0000240a00003f
:105974005cfb0000c3fc000052080000440b000064
:10598400d8fd0000d5ec000022ea000063f7000017
:1059940019060000f50600008bfc000048f5000025
:1059a400fef50000faf900007aff00007509000016
:1059b400de1200008211000097060000f3ff0000d1
:1059c40041020000d902000036fb000055f200003d
:1059d400c9f200000afe0000ed080000d60700002e
:1059e400dbfd000056f3000057f0000071fa0000e0
:1059f400c40900004f0e00000e0600007aff0000ec
:105a04009a030000970b0000d609000011fb000068
:105a1400e8ec00000bee0000f4fb00002d09000090
:105a2400c80b0000fa0500006aff000026f8000019
:105a340065f20000dcf70000b90600004612000021
:105a4400f91100005d090000b9030000de02000046
:105a5400befe000081f30000c2e70000a7e70000db
:105a640080f6000001090000f60f0000230a000080
